{
  "contractName": "ComplexStorage",
  "abi": [
    {
      "constant": true,
      "inputs": [],
      "name": "string2",
      "outputs": [
        {
          "name": "",
          "type": "bytes32"
        }
      ],
      "payable": false,
      "stateMutability": "view",
      "type": "function"
    },
    {
      "constant": true,
      "inputs": [],
      "name": "storeduint1",
      "outputs": [
        {
          "name": "",
          "type": "uint256"
        }
      ],
      "payable": false,
      "stateMutability": "view",
      "type": "function"
    },
    {
      "constant": true,
      "inputs": [],
      "name": "singleDD",
      "outputs": [
        {
          "name": "deviceBrand",
          "type": "string"
        },
        {
          "name": "deviceYear",
          "type": "string"
        },
        {
          "name": "batteryWearLevel",
          "type": "string"
        }
      ],
      "payable": false,
      "stateMutability": "view",
      "type": "function"
    },
    {
      "constant": true,
      "inputs": [
        {
          "name": "",
          "type": "uint256"
        }
      ],
      "name": "uintarray",
      "outputs": [
        {
          "name": "",
          "type": "uint256"
        }
      ],
      "payable": false,
      "stateMutability": "view",
      "type": "function"
    },
    {
      "constant": true,
      "inputs": [
        {
          "name": "",
          "type": "uint256"
        }
      ],
      "name": "deviceDataArray",
      "outputs": [
        {
          "name": "deviceBrand",
          "type": "string"
        },
        {
          "name": "deviceYear",
          "type": "string"
        },
        {
          "name": "batteryWearLevel",
          "type": "string"
        }
      ],
      "payable": false,
      "stateMutability": "view",
      "type": "function"
    },
    {
      "constant": true,
      "inputs": [],
      "name": "string3",
      "outputs": [
        {
          "name": "",
          "type": "string"
        }
      ],
      "payable": false,
      "stateMutability": "view",
      "type": "function"
    },
    {
      "constant": true,
      "inputs": [],
      "name": "constuint",
      "outputs": [
        {
          "name": "",
          "type": "uint256"
        }
      ],
      "payable": false,
      "stateMutability": "view",
      "type": "function"
    },
    {
      "constant": true,
      "inputs": [],
      "name": "string1",
      "outputs": [
        {
          "name": "",
          "type": "bytes16"
        }
      ],
      "payable": false,
      "stateMutability": "view",
      "type": "function"
    },
    {
      "constant": true,
      "inputs": [],
      "name": "investmentsDeadlineTimeStamp",
      "outputs": [
        {
          "name": "",
          "type": "uint32"
        }
      ],
      "payable": false,
      "stateMutability": "view",
      "type": "function"
    },
    {
      "constant": true,
      "inputs": [],
      "name": "investmentsLimit",
      "outputs": [
        {
          "name": "",
          "type": "uint128"
        }
      ],
      "payable": false,
      "stateMutability": "view",
      "type": "function"
    },
    {
      "inputs": [],
      "payable": false,
      "stateMutability": "nonpayable",
      "type": "constructor"
    },
    {
      "constant": true,
      "inputs": [],
      "name": "wholeArray",
      "outputs": [
        {
          "name": "",
          "type": "uint256[]"
        }
      ],
      "payable": false,
      "stateMutability": "view",
      "type": "function"
    }
  ],
  "bytecode": "0x60606040908152600f6000556001805461429f6001608060020a031991821617608060020a63ffffffff0219167001000000000000000000000000000000004263ffffffff160217909155600280549091166f746573743100000000000000000000001790557f74657374313233360000000000000000000000000000000000000000000000006003558051908101604052601581527f6c65747320737472696e6720736f6d657468696e67000000000000000000000060208201526004908051620000d092916020019062000633565b503415620000dd57600080fd5b600080620000ea620006b8565b620000f4620006b8565b620000fe620006b8565b600560205260587fafef6be2b419f4d69d56fe34788202bf06650015554457a2470181981bcce7ef5573aee905fdd3ed851e48d22059575b9f4245a82b04600081905260637fb01ced36af2255129ceb004046ab791f2c883dd74d458026d7b81c7aaff3566b5573bccc714d56bc0da0fd33d96d2a87b680dd6d0df6955093506060604051908101604052806040805190810160405280600b81526020017f6465766963654272616e6400000000000000000000000000000000000000000081525081526020016040805190810160405280600a81526020017f646576696365596561720000000000000000000000000000000000000000000081525081526020016040805190810160405280600981526020017f776561724c6576656c000000000000000000000000000000000000000000000081525081525092506060604051908101604052806040805190810160405280600c81526020017f6465766963654272616e6432000000000000000000000000000000000000000081525081526020016040805190810160405280600b81526020017f646576696365596561723200000000000000000000000000000000000000000081525081526020016040805190810160405280600a81526020017f776561724c6576656c320000000000000000000000000000000000000000000081525081525091506060604051908101604052806040805190810160405280600c81526020017f6465766963654272616e6433000000000000000000000000000000000000000081525081526020016040805190810160405280600b81526020017f64657669636559656172330000000000000000000000000000000000000000008152508152602001604080519081016040908152600a82527f776561724c6576656c330000000000000000000000000000000000000000000060208084019190915291909252600160a060020a03881660009081526006909152209091508390815181908051620003e892916020019062000633565b506020820151816001019080516200040592916020019062000633565b506040820151816002019080516200042292916020019062000633565b505050600160a060020a038416600090815260066020526040902082908151819080516200045592916020019062000633565b506020820151816001019080516200047292916020019062000633565b506040820151816002019080516200048f92916020019062000633565b5082915060099050815181908051620004ad92916020019062000633565b50602082015181600101908051620004ca92916020019062000633565b50604082015181600201908051620004e792916020019062000633565b50506007805490915060018101620005008382620006f1565b5060009182526020909120611f409101556007805460018101620005258382620006f1565b506000918252602090912061232891015560088054600181016200054a83826200071d565b600092835260209092208591600302018151819080516200057092916020019062000633565b506020820151816001019080516200058d92916020019062000633565b50604082015181600201908051620005aa92916020019062000633565b5050505060088054806001018281620005c491906200071d565b60009283526020909220849160030201815181908051620005ea92916020019062000633565b506020820151816001019080516200060792916020019062000633565b506040820151816002019080516200062492916020019062000633565b50505050505050505062000811565b828054600181600116156101000203166002900490600052602060002090601f016020900481019282601f106200067657805160ff1916838001178555620006a6565b82800160010185558215620006a6579182015b82811115620006a657825182559160200191906001019062000689565b50620006b49291506200074c565b5090565b606060405190810160405280620006ce6200076c565b8152602001620006dd6200076c565b8152602001620006ec6200076c565b905290565b8154818355818115116200071857600083815260209020620007189181019083016200074c565b505050565b81548183558181151162000718576003028160030283600052602060002091820191016200071891906200077e565b6200076991905b80821115620006b4576000815560010162000753565b90565b60206040519081016040526000815290565b6200076991905b80821115620006b45760006200079c8282620007c6565b620007ac600183016000620007c6565b620007bc600283016000620007c6565b5060030162000785565b50805460018160011615610100020316600290046000825580601f10620007ee57506200080e565b601f0160209004906000526020600020908101906200080e91906200074c565b50565b61063780620008216000396000f3006060604052600436106100ae5763ffffffff7c01000000000000000000000000000000000000000000000000000000006000350416630ca0aa7981146100b357806311f9c74d146100d857806328a20b5e146100eb578063637f43a01461027c5780636c0c1bcf146102e257806384eeda56146102f8578063927558601461030e57806397ba784f14610398578063a7b2cfca146103ab578063df4fddf5146103e4578063eec65f2914610410575b600080fd5b34156100be57600080fd5b6100c6610448565b60405190815260200160405180910390f35b34156100e357600080fd5b6100c661044e565b34156100f657600080fd5b6100fe610454565b60405160608082528454600260001961010060018416150201909116049082018190528190602082019060408301906080840190889080156101815780601f1061015657610100808354040283529160200191610181565b820191906000526020600020905b81548152906001019060200180831161016457829003601f168201915b50508481038352865460026000196101006001841615020190911604808252602090910190879080156101f55780601f106101ca576101008083540402835291602001916101f5565b820191906000526020600020905b8154815290600101906020018083116101d857829003601f168201915b50508481038252855460026000196101006001841615020190911604808252602090910190869080156102695780601f1061023e57610100808354040283529160200191610269565b820191906000526020600020905b81548152906001019060200180831161024c57829003601f168201915b5050965050505050505060405180910390f35b341561028757600080fd5b61028f61045d565b60405160208082528190810183818151815260200191508051906020019060200280838360005b838110156102ce5780820151838201526020016102b6565b505050509050019250505060405180910390f35b34156102ed57600080fd5b6100c66004356104bb565b341561030357600080fd5b6100fe6004356104da565b341561031957600080fd5b610321610505565b60405160208082528190810183818151815260200191508051906020019080838360005b8381101561035d578082015183820152602001610345565b50505050905090810190601f16801561038a5780820380516001836020036101000a031916815260200191505b509250505060405180910390f35b34156103a357600080fd5b6100c66105a3565b34156103b657600080fd5b6103be6105a8565b6040516fffffffffffffffffffffffffffffffff19909116815260200160405180910390f35b34156103ef57600080fd5b6103f76105c1565b60405163ffffffff909116815260200160405180910390f35b341561041b57600080fd5b6104236105e1565b6040516fffffffffffffffffffffffffffffffff909116815260200160405180910390f35b60035481565b60005481565b6009600a600b83565b6104656105f9565b60078054806020026020016040519081016040528092919081815260200182805480156104b157602002820191906000526020600020905b81548152602001906001019080831161049d575b5050505050905090565b60078054829081106104c957fe5b600091825260209091200154905081565b60088054829081106104e857fe5b600091825260209091206003909102019050600181016002820183565b60048054600181600116156101000203166002900480601f01602080910402602001604051908101604052809291908181526020018280546001816001161561010002031660029004801561059b5780601f106105705761010080835404028352916020019161059b565b820191906000526020600020905b81548152906001019060200180831161057e57829003601f168201915b505050505081565b601081565b6002547001000000000000000000000000000000000281565b600154700100000000000000000000000000000000900463ffffffff1681565b6001546fffffffffffffffffffffffffffffffff1681565b602060405190810160405260008152905600a165627a7a72305820847e080ddb4ffdcf0ec8669e5c2e504b18d8f1f3307a643a6a70d49d3ec7a6f30029",
  "source": "pragma solidity ^0.4.0;\n\ncontract ComplexStorage {\n\n\tuint public storeduint1 = 15;\n\tuint public constant constuint = 16;\n\tuint128 public investmentsLimit = 17055;\n\tuint32 public investmentsDeadlineTimeStamp = uint32(now);\n\n\tbytes16 public string1 = \"test1\";\n\tbytes32 public string2 = \"test1236\";\n\tstring public string3 = \"lets string something\";\n\n\tmapping (address => uint) uints1;\n\tmapping (address => DeviceData) structs1;\n\n\tuint[] public uintarray;\n\tDeviceData[] public deviceDataArray;\n    DeviceData public singleDD;\n\n\tstruct DeviceData {\n\t\tstring deviceBrand;\n\t\tstring deviceYear;\n\t\tstring batteryWearLevel;\n\t}\n\n\tfunction wholeArray() public view returns(uint[]) {\n\t\treturn uintarray;\n\t}\n\n\tfunction ComplexStorage() public {\n\t\taddress address1 = 0xbCcc714d56bc0da0fd33d96d2a87b680dD6D0DF6;\n\t\taddress address2 = 0xaee905FdD3ED851e48d22059575b9F4245A82B04;\n\n\t\tuints1[address1] = 88;\n\t\tuints1[address2] = 99;\n\n\t\tvar dev1 = DeviceData(\"deviceBrand\", \"deviceYear\", \"wearLevel\");\n\t\tvar dev2 = DeviceData(\"deviceBrand2\", \"deviceYear2\", \"wearLevel2\");\n    var dev3 = DeviceData(\"deviceBrand3\", \"deviceYear3\", \"wearLevel3\");\n\n\t\tstructs1[address1] = dev1;\n\t\tstructs1[address2] = dev2;\n        singleDD = dev3;\n\n\t\tuintarray.push(8000);\n\t\tuintarray.push(9000);\n\n\t\tdeviceDataArray.push(dev1);\n\t\tdeviceDataArray.push(dev2);\n\t}\n}\n",
  "sourcePath": "/Users/chunkzer/Workspace/taroETH/contracts/ComplexStorage.sol",
  "compiler": {
    "name": "solc",
    "version": "0.4.19+commit.c4cbbb05.Emscripten.clang"
  },
  "schemaVersion": "2.0.0",
  "updatedAt": "2018-04-05T06:05:33.795Z"
}