{
  "contractName": "TaroEth",
  "abi": [
    {
      "constant": false,
      "inputs": [],
      "name": "unpause",
      "outputs": [],
      "payable": false,
      "stateMutability": "nonpayable",
      "type": "function"
    },
    {
      "constant": true,
      "inputs": [],
      "name": "paused",
      "outputs": [
        {
          "name": "",
          "type": "bool"
        }
      ],
      "payable": false,
      "stateMutability": "view",
      "type": "function"
    },
    {
      "constant": true,
      "inputs": [
        {
          "name": "",
          "type": "uint256"
        }
      ],
      "name": "petitionersAddresses",
      "outputs": [
        {
          "name": "",
          "type": "address"
        }
      ],
      "payable": false,
      "stateMutability": "view",
      "type": "function"
    },
    {
      "constant": true,
      "inputs": [
        {
          "name": "",
          "type": "address"
        },
        {
          "name": "",
          "type": "uint256"
        }
      ],
      "name": "addressToPetitionIndexes",
      "outputs": [
        {
          "name": "",
          "type": "uint256"
        }
      ],
      "payable": false,
      "stateMutability": "view",
      "type": "function"
    },
    {
      "constant": false,
      "inputs": [],
      "name": "pause",
      "outputs": [],
      "payable": false,
      "stateMutability": "nonpayable",
      "type": "function"
    },
    {
      "constant": true,
      "inputs": [],
      "name": "owner",
      "outputs": [
        {
          "name": "",
          "type": "address"
        }
      ],
      "payable": false,
      "stateMutability": "view",
      "type": "function"
    },
    {
      "constant": true,
      "inputs": [],
      "name": "unlockedBalance",
      "outputs": [
        {
          "name": "",
          "type": "uint256"
        }
      ],
      "payable": false,
      "stateMutability": "view",
      "type": "function"
    },
    {
      "constant": true,
      "inputs": [],
      "name": "maximumTurnaround",
      "outputs": [
        {
          "name": "",
          "type": "uint256"
        }
      ],
      "payable": false,
      "stateMutability": "view",
      "type": "function"
    },
    {
      "constant": true,
      "inputs": [],
      "name": "minimumIncentive",
      "outputs": [
        {
          "name": "",
          "type": "uint256"
        }
      ],
      "payable": false,
      "stateMutability": "view",
      "type": "function"
    },
    {
      "constant": false,
      "inputs": [
        {
          "name": "newOwner",
          "type": "address"
        }
      ],
      "name": "transferOwnership",
      "outputs": [],
      "payable": false,
      "stateMutability": "nonpayable",
      "type": "function"
    },
    {
      "inputs": [],
      "payable": true,
      "stateMutability": "payable",
      "type": "constructor"
    },
    {
      "anonymous": false,
      "inputs": [
        {
          "indexed": false,
          "name": "incentive",
          "type": "uint256"
        },
        {
          "indexed": false,
          "name": "petitionIndex",
          "type": "uint256"
        },
        {
          "indexed": false,
          "name": "topics",
          "type": "bool[8]"
        },
        {
          "indexed": false,
          "name": "turnaround",
          "type": "uint32"
        },
        {
          "indexed": false,
          "name": "showcaseTopic",
          "type": "uint8"
        },
        {
          "indexed": false,
          "name": "storageOption",
          "type": "uint8"
        },
        {
          "indexed": false,
          "name": "spread",
          "type": "uint8[4]"
        }
      ],
      "name": "NewPetition",
      "type": "event"
    },
    {
      "anonymous": false,
      "inputs": [
        {
          "indexed": false,
          "name": "url",
          "type": "string"
        },
        {
          "indexed": false,
          "name": "commentary",
          "type": "string"
        }
      ],
      "name": "NewReading",
      "type": "event"
    },
    {
      "anonymous": false,
      "inputs": [],
      "name": "Pause",
      "type": "event"
    },
    {
      "anonymous": false,
      "inputs": [],
      "name": "Unpause",
      "type": "event"
    },
    {
      "anonymous": false,
      "inputs": [
        {
          "indexed": true,
          "name": "previousOwner",
          "type": "address"
        },
        {
          "indexed": true,
          "name": "newOwner",
          "type": "address"
        }
      ],
      "name": "OwnershipTransferred",
      "type": "event"
    },
    {
      "constant": false,
      "inputs": [],
      "name": "withdraw",
      "outputs": [],
      "payable": false,
      "stateMutability": "nonpayable",
      "type": "function"
    },
    {
      "constant": true,
      "inputs": [],
      "name": "petitionsLength",
      "outputs": [
        {
          "name": "length",
          "type": "uint256"
        }
      ],
      "payable": false,
      "stateMutability": "view",
      "type": "function"
    },
    {
      "constant": false,
      "inputs": [
        {
          "name": "_comments",
          "type": "string"
        },
        {
          "name": "_topics",
          "type": "bool[8]"
        },
        {
          "name": "_showcaseTopic",
          "type": "uint8"
        },
        {
          "name": "_storageOption",
          "type": "uint8"
        },
        {
          "name": "nonces",
          "type": "uint8[4]"
        }
      ],
      "name": "makePetition",
      "outputs": [],
      "payable": true,
      "stateMutability": "payable",
      "type": "function"
    },
    {
      "constant": false,
      "inputs": [
        {
          "name": "_index",
          "type": "uint256"
        }
      ],
      "name": "cancelPetition",
      "outputs": [],
      "payable": false,
      "stateMutability": "nonpayable",
      "type": "function"
    },
    {
      "constant": false,
      "inputs": [
        {
          "name": "_url",
          "type": "string"
        },
        {
          "name": "_commentary",
          "type": "string"
        },
        {
          "name": "_index",
          "type": "uint256"
        }
      ],
      "name": "updateReading",
      "outputs": [],
      "payable": false,
      "stateMutability": "nonpayable",
      "type": "function"
    },
    {
      "constant": false,
      "inputs": [
        {
          "name": "_turnaround",
          "type": "uint256"
        },
        {
          "name": "_minimumIncentive",
          "type": "uint256"
        }
      ],
      "name": "modifyConstraints",
      "outputs": [],
      "payable": false,
      "stateMutability": "nonpayable",
      "type": "function"
    },
    {
      "constant": true,
      "inputs": [],
      "name": "getLastPetitions",
      "outputs": [
        {
          "name": "indexes",
          "type": "uint256[]"
        },
        {
          "name": "petitioner",
          "type": "address[]"
        },
        {
          "name": "incentive",
          "type": "uint256[]"
        },
        {
          "name": "turnaround",
          "type": "uint32[]"
        },
        {
          "name": "status",
          "type": "uint8[]"
        },
        {
          "name": "showcaseTopic",
          "type": "uint8[]"
        },
        {
          "name": "storageOption",
          "type": "uint8[]"
        }
      ],
      "payable": false,
      "stateMutability": "view",
      "type": "function"
    },
    {
      "constant": true,
      "inputs": [
        {
          "name": "_index",
          "type": "uint256"
        }
      ],
      "name": "getPetition",
      "outputs": [
        {
          "name": "incentive",
          "type": "uint256"
        },
        {
          "name": "comments",
          "type": "string"
        },
        {
          "name": "turnaround",
          "type": "uint32"
        },
        {
          "name": "topics",
          "type": "bool[8]"
        },
        {
          "name": "status",
          "type": "uint8"
        },
        {
          "name": "showcaseTopic",
          "type": "uint8"
        },
        {
          "name": "storageOption",
          "type": "uint8"
        }
      ],
      "payable": false,
      "stateMutability": "view",
      "type": "function"
    },
    {
      "constant": true,
      "inputs": [
        {
          "name": "_index",
          "type": "uint256"
        }
      ],
      "name": "getReading",
      "outputs": [
        {
          "name": "url",
          "type": "string"
        },
        {
          "name": "commentary",
          "type": "string"
        },
        {
          "name": "spread",
          "type": "uint8[4]"
        }
      ],
      "payable": false,
      "stateMutability": "view",
      "type": "function"
    },
    {
      "constant": true,
      "inputs": [],
      "name": "getAllPetitions",
      "outputs": [
        {
          "name": "indexes",
          "type": "uint256[]"
        },
        {
          "name": "petitioner",
          "type": "address[]"
        },
        {
          "name": "incentive",
          "type": "uint256[]"
        },
        {
          "name": "turnaround",
          "type": "uint32[]"
        },
        {
          "name": "status",
          "type": "uint8[]"
        },
        {
          "name": "showcaseTopic",
          "type": "uint8[]"
        },
        {
          "name": "storageOption",
          "type": "uint8[]"
        }
      ],
      "payable": false,
      "stateMutability": "view",
      "type": "function"
    },
    {
      "constant": true,
      "inputs": [
        {
          "name": "_petitioner",
          "type": "address"
        }
      ],
      "name": "getPetitionsByPetitioner",
      "outputs": [
        {
          "name": "indexes",
          "type": "uint256[]"
        },
        {
          "name": "petitioner",
          "type": "address[]"
        },
        {
          "name": "incentive",
          "type": "uint256[]"
        },
        {
          "name": "turnaround",
          "type": "uint32[]"
        },
        {
          "name": "status",
          "type": "uint8[]"
        },
        {
          "name": "showcaseTopic",
          "type": "uint8[]"
        },
        {
          "name": "storageOption",
          "type": "uint8[]"
        }
      ],
      "payable": false,
      "stateMutability": "view",
      "type": "function"
    }
  ],
  "bytecode": "0x60606040526000805462093a806001556003829055600160a060020a033316600160a860020a031990911617905534600255613638806100406000396000f30060606040526004361061011b5763ffffffff7c010000000000000000000000000000000000000000000000000000000060003504166287a78881146101205780630c90ce42146102405780630d02d908146103335780633ccfd60b146103585780633d96ad421461036d5780633f4ba83a146103835780634830a9fb146103965780634cc1a650146105a75780635c975abb146105c057806367f23a82146105e75780636b5753821461061957806382c8fc931461063b5780638456cb59146106d05780638da5cb5b146106e35780639a37c01e146106f6578063ab6ad45214610709578063bb9b671b1461071c578063c904d0c7146107c7578063cb1dc9a5146107da578063d7d664cd146107ed578063f2fde38b14610800575b600080fd5b341561012b57600080fd5b61013660043561081f565b60405180602081016040820184608080838360005b8381101561016357808201518382015260200161014b565b50505050905001838103835286818151815260200191508051906020019080838360005b8381101561019f578082015183820152602001610187565b50505050905090810190601f1680156101cc5780820380516001836020036101000a031916815260200191505b50838103825285818151815260200191508051906020019080838360005b838110156102025780820151838201526020016101ea565b50505050905090810190601f16801561022f5780820380516001836020036101000a031916815260200191505b509550505050505060405180910390f35b341561024b57600080fd5b610256600435610a81565b60405187815263ffffffff8616604082015260208101606082018661010080838360005b8381101561029257808201518382015260200161027a565b505050509050018560ff1660ff1681526020018460ff1660ff1681526020018360ff1660ff168152602001828103825288818151815260200191508051906020019080838360005b838110156102f25780820151838201526020016102da565b50505050905090810190601f16801561031f5780820380516001836020036101000a031916815260200191505b509850505050505050505060405180910390f35b341561033e57600080fd5b610346610f03565b60405190815260200160405180910390f35b341561036357600080fd5b61036b610f0a565b005b341561037857600080fd5b61036b600435610f66565b341561038e57600080fd5b61036b6110dc565b34156103a157600080fd5b6103b5600160a060020a036004351661116c565b604051808060200180602001806020018060200180602001806020018060200188810388528f818151815260200191508051906020019060200280838360005b8381101561040d5780820151838201526020016103f5565b5050505090500188810387528e818151815260200191508051906020019060200280838360005b8381101561044c578082015183820152602001610434565b5050505090500188810386528d818151815260200191508051906020019060200280838360005b8381101561048b578082015183820152602001610473565b5050505090500188810385528c818151815260200191508051906020019060200280838360005b838110156104ca5780820151838201526020016104b2565b5050505090500188810384528b818151815260200191508051906020019060200280838360005b838110156105095780820151838201526020016104f1565b5050505090500188810383528a818151815260200191508051906020019060200280838360005b83811015610548578082015183820152602001610530565b50505050905001888103825289818151815260200191508051906020019060200280838360005b8381101561058757808201518382015260200161056f565b505050509050019e50505050505050505050505050505060405180910390f35b34156105b257600080fd5b61036b600435602435611668565b34156105cb57600080fd5b6105d361168b565b604051901515815260200160405180910390f35b34156105f257600080fd5b6105fd6004356116ac565b604051600160a060020a03909116815260200160405180910390f35b341561062457600080fd5b610346600160a060020a03600435166024356116d4565b341561064657600080fd5b61036b60046024813581810190830135806020601f8201819004810201604051908101604052818152929190602084018383808284378201915050505050509190803590602001908201803590602001908080601f016020809104026020016040519081016040528181529291906020840183838082843750949650509335935061170292505050565b34156106db57600080fd5b61036b611a00565b34156106ee57600080fd5b6105fd611aa6565b341561070157600080fd5b6103b5611ab5565b341561071457600080fd5b610346611f6c565b61036b60046024813581810190830135806020601f8201819004810201604051908101604052818152929190602084018383808284378201915050505050509190806101000190600880602002604051908101604052919082826101008082843750939560ff86358116966020810135909116955090935060c08101925060409081019150600490608090519081016040529190828260808082843750939550611f72945050505050565b34156107d257600080fd5b61034661236b565b34156107e557600080fd5b610346612371565b34156107f857600080fd5b6103b5612377565b341561080b57600080fd5b61036b600160a060020a0360043516612c36565b61082761324d565b61082f61324d565b61083761325f565b61083f613287565b60065485901161089c57608060405190810160409081526000808352602080840182905282840182905260608401919091529051908101604052806000815250906020604051908101604052600081529195509093509150610a79565b60068054869081106108aa57fe5b906000526020600020906009020160020160606040519081016040529081600082018054600181600116156101000203166002900480601f0160208091040260200160405190810160405280929190818152602001828054600181600116156101000203166002900480156109605780601f1061093557610100808354040283529160200191610960565b820191906000526020600020905b81548152906001019060200180831161094357829003601f168201915b50505050508152602001600182018054600181600116156101000203166002900480601f016020809104026020016040519081016040528092919081815260200182805460018160011615610100020316600290048015610a025780601f106109d757610100808354040283529160200191610a02565b820191906000526020600020905b8154815290600101906020018083116109e557829003601f168201915b50505091835250506020016002820160046080604051908101604052919060808301826000855b825461010083900a900460ff16815260206001928301818104948501949093039092029101808411610a295790505050505050815250509050806000015181602001518260400151919550935091505b509193909250565b6000610a8b61324d565b6000610a956132ba565b6000806000610aa26132d5565b600654899011610b1b57600080610100604051908101604090815260008083526020808401829052828401829052606084018290526080840182905260a0840182905260c0840182905260e084018290529091829182915190810160405260008152959d50949b50929950909750955093509150610ef7565b600680548a908110610b2957fe5b906000526020600020906009020161012060405190810160409081528254600160a060020a0316825260018301546020830152909190808301906002830190606090519081016040529081600082018054600181600116156101000203166002900480601f016020809104026020016040519081016040528092919081815260200182805460018160011615610100020316600290048015610c0c5780601f10610be157610100808354040283529160200191610c0c565b820191906000526020600020905b815481529060010190602001808311610bef57829003601f168201915b50505050508152602001600182018054600181600116156101000203166002900480601f016020809104026020016040519081016040528092919081815260200182805460018160011615610100020316600290048015610cae5780601f10610c8357610100808354040283529160200191610cae565b820191906000526020600020905b815481529060010190602001808311610c9157829003601f168201915b50505091835250506020016002820160046080604051908101604052919060808301826000855b825461010083900a900460ff16815260206001928301818104948501949093039092029101808411610cd55790505050505050815250508152602001600582018054600181600116156101000203166002900480601f016020809104026020016040519081016040528092919081815260200182805460018160011615610100020316600290048015610da95780601f10610d7e57610100808354040283529160200191610da9565b820191906000526020600020905b815481529060010190602001808311610d8c57829003601f168201915b5050509183525050600682015463ffffffff1660208201526040908101906007830190600890610100905190810160405291906101008301826000855b825461010083900a900460ff161515815260206001928301818104948501949093039092029101808411610de657505050928452505050600882015460209091019060ff166002811115610e3657fe5b6002811115610e4157fe5b81526020016008820160019054906101000a900460ff166007811115610e6357fe5b6007811115610e6e57fe5b81526020016008820160029054906101000a900460ff166002811115610e9057fe5b6002811115610e9b57fe5b90525090506020810151816060015182608001518360a001518460c001516002811115610ec457fe5b8560e001516007811115610ed457fe5b8661010001516002811115610ee557fe5b959d50939b5091995097509550935091505b50919395979092949650565b6006545b90565b6000805433600160a060020a03908116911614610f2657600080fd5b50600280546000918290559054600160a060020a031681156108fc0282604051600060405180830381858888f193505050501515610f6357600080fd5b50565b80600681815481101515610f7657fe5b600091825260209091206006600990920201015463ffffffff161515610f9b57600080fd5b33600160a060020a0316600683815481101515610fb457fe5b6000918252602090912060099091020154600160a060020a031614610fd857600080fd5b60006006805484908110610fe857fe5b600091825260209091206008600990920201015460ff16600281111561100a57fe5b1461101457600080fd5b4260068381548110151561102457fe5b600091825260209091206006600990920201015463ffffffff161061104857600080fd5b600260068381548110151561105957fe5b60009182526020909120600860099092020101805460ff1916600183600281111561108057fe5b021790555033600160a060020a03166108fc6006848154811015156110a157fe5b9060005260206000209060090201600101549081150290604051600060405180830381858888f1935050505015156110d857600080fd5b5050565b60005433600160a060020a039081169116146110f757600080fd5b60005474010000000000000000000000000000000000000000900460ff16151561112057600080fd5b6000805474ff0000000000000000000000000000000000000000191690557f7805862f689e2f13df9f062ff482ad3ad112aca9e0847911ed832e158c525b3360405160405180910390a1565b61117461324d565b61117c61324d565b61118461324d565b61118c61324d565b61119461324d565b61119c61324d565b6111a461324d565b60006111ae61324d565b6111b661324d565b600160a060020a038b166000908152600560205260408082205494508490518059106111df5750595b90808252806020026020018201604052801561121557816020015b6112026132d5565b8152602001906001900390816111fa5790505b509250836040518059106112265750595b90808252806020026020018201604052509150600090505b8381101561164157600160a060020a038c16600090815260056020526040902080548290811061126a57fe5b90600052602060002090015482828151811061128257fe5b60209081029091010152600682828151811061129a57fe5b90602001906020020151815481106112ae57fe5b906000526020600020906009020161012060405190810160409081528254600160a060020a0316825260018301546020830152909190808301906002830190606090519081016040529081600082018054600181600116156101000203166002900480601f0160208091040260200160405190810160405280929190818152602001828054600181600116156101000203166002900480156113915780601f1061136657610100808354040283529160200191611391565b820191906000526020600020905b81548152906001019060200180831161137457829003601f168201915b50505050508152602001600182018054600181600116156101000203166002900480601f0160208091040260200160405190810160405280929190818152602001828054600181600116156101000203166002900480156114335780601f1061140857610100808354040283529160200191611433565b820191906000526020600020905b81548152906001019060200180831161141657829003601f168201915b50505091835250506020016002820160046080604051908101604052919060808301826000855b825461010083900a900460ff1681526020600192830181810494850194909303909202910180841161145a5790505050505050815250508152602001600582018054600181600116156101000203166002900480601f01602080910402602001604051908101604052809291908181526020018280546001816001161561010002031660029004801561152e5780601f106115035761010080835404028352916020019161152e565b820191906000526020600020905b81548152906001019060200180831161151157829003601f168201915b5050509183525050600682015463ffffffff1660208201526040908101906007830190600890610100905190810160405291906101008301826000855b825461010083900a900460ff16151581526020600192830181810494850194909303909202910180841161156b57505050928452505050600882015460209091019060ff1660028111156115bb57fe5b60028111156115c657fe5b81526020016008820160019054906101000a900460ff1660078111156115e857fe5b60078111156115f357fe5b81526020016008820160029054906101000a900460ff16600281111561161557fe5b600281111561162057fe5b90525083828151811061162f57fe5b6020908102909101015260010161123e565b61164b8284612cd1565b9a509a509a509a509a509a509a5050505050919395979092949650565b60005433600160a060020a0390811691161461168357600080fd5b600355600155565b60005474010000000000000000000000000000000000000000900460ff1681565b60048054829081106116ba57fe5b600091825260209091200154600160a060020a0316905081565b6005602052816000526040600020818154811015156116ef57fe5b6000918252602090912001549150829050565b60005433600160a060020a0390811691161461171d57600080fd5b8060068181548110151561172d57fe5b600091825260209091206006600990920201015463ffffffff16151561175257600080fd5b6000600680548490811061176257fe5b600091825260209091206008600990920201015460ff16600281111561178457fe5b14156117c3576117bf60068381548110151561179c57fe5b906000526020600020906009020160010154600254612f9f90919063ffffffff16565b6002555b60016006838154811015156117d457fe5b60009182526020909120600860099092020101805460ff191660018360028111156117fb57fe5b021790555060606040519081016040528085815260200184815260200160068481548110151561182757fe5b9060005260206000209060090201600201600201600480602002604051908101604052919060808301826000855b825461010083900a900460ff16815260206001928301818104948501949093039092029101808411611855579050505050505081525060068381548110151561189a57fe5b90600052602060002090600902016002016000820151819080516118c2929160200190613332565b506020820151816001019080516118dd929160200190613332565b5060408201516118f390600283019060046133b0565b509050507f7d057d215afc253a96915e44e080ee521580faf91bec04209f9632eabc51db3c8484604051808060200180602001838103835285818151815260200191508051906020019080838360005b8381101561195b578082015183820152602001611943565b50505050905090810190601f1680156119885780820380516001836020036101000a031916815260200191505b50838103825284818151815260200191508051906020019080838360005b838110156119be5780820151838201526020016119a6565b50505050905090810190601f1680156119eb5780820380516001836020036101000a031916815260200191505b5094505050505060405180910390a150505050565b60005433600160a060020a03908116911614611a1b57600080fd5b60005474010000000000000000000000000000000000000000900460ff1615611a4357600080fd5b6000805474ff00000000000000000000000000000000000000001916740100000000000000000000000000000000000000001790557f6985a02210a168e66602d3235cb6db0e70f92b3ba4d376a33c0f3d9434bff62560405160405180910390a1565b600054600160a060020a031681565b611abd61324d565b611ac561324d565b611acd61324d565b611ad561324d565b611add61324d565b611ae561324d565b611aed61324d565b611af561324d565b611afd61324d565b600654600090604051805910611b105750595b908082528060200260200182016040528015611b4657816020015b611b336132d5565b815260200190600190039081611b2b5790505b50600654909350604051805910611b5a5750595b90808252806020026020018201604052509150600090505b600654811015611f485780828281518110611b8957fe5b602090810290910101526006828281518110611ba157fe5b9060200190602002015181548110611bb557fe5b906000526020600020906009020161012060405190810160409081528254600160a060020a0316825260018301546020830152909190808301906002830190606090519081016040529081600082018054600181600116156101000203166002900480601f016020809104026020016040519081016040528092919081815260200182805460018160011615610100020316600290048015611c985780601f10611c6d57610100808354040283529160200191611c98565b820191906000526020600020905b815481529060010190602001808311611c7b57829003601f168201915b50505050508152602001600182018054600181600116156101000203166002900480601f016020809104026020016040519081016040528092919081815260200182805460018160011615610100020316600290048015611d3a5780601f10611d0f57610100808354040283529160200191611d3a565b820191906000526020600020905b815481529060010190602001808311611d1d57829003601f168201915b50505091835250506020016002820160046080604051908101604052919060808301826000855b825461010083900a900460ff16815260206001928301818104948501949093039092029101808411611d615790505050505050815250508152602001600582018054600181600116156101000203166002900480601f016020809104026020016040519081016040528092919081815260200182805460018160011615610100020316600290048015611e355780601f10611e0a57610100808354040283529160200191611e35565b820191906000526020600020905b815481529060010190602001808311611e1857829003601f168201915b5050509183525050600682015463ffffffff1660208201526040908101906007830190600890610100905190810160405291906101008301826000855b825461010083900a900460ff161515815260206001928301818104948501949093039092029101808411611e7257505050928452505050600882015460209091019060ff166002811115611ec257fe5b6002811115611ecd57fe5b81526020016008820160019054906101000a900460ff166007811115611eef57fe5b6007811115611efa57fe5b81526020016008820160029054906101000a900460ff166002811115611f1c57fe5b6002811115611f2757fe5b905250838281518110611f3657fe5b60209081029091010152600101611b72565b611f528284612cd1565b995099509950995099509950995050505090919293949596565b60025481565b611f7a61325f565b611f826132d5565b6000805474010000000000000000000000000000000000000000900460ff1615611fab57600080fd5b600354341015611fba57600080fd5b600160a060020a033316600090815260056020526040902054151561201e576004805460018101611feb838261343f565b506000918252602090912001805473ffffffffffffffffffffffffffffffffffffffff191633600160a060020a03161790555b61202784612fb5565b92506101206040519081016040528033600160a060020a031681526020013481526020016060604051908101604052806020604051908101604052806000815250815260200160206040519081016040528060008152508152602001868152508152602001898152602001600154420163ffffffff168152602001888152602001600060028111156120b557fe5b81526020018760078111156120c657fe5b81526020018660028111156120d757fe5b90526006805491935090600181016120ef8382613468565b600092835260209092208491600902018151815473ffffffffffffffffffffffffffffffffffffffff1916600160a060020a039190911617815560208201518160010155604082015160028201815181908051612150929160200190613332565b5060208201518160010190805161216b929160200190613332565b50604082015161218190600283019060046133b0565b50505060608201518160050190805161219e929160200190613332565b50608082015160068201805463ffffffff191663ffffffff9290921691909117905560a08201516121d59060078301906008613494565b5060c082015160088201805460ff191660018360028111156121f357fe5b021790555060e082015160088201805461ff00191661010083600781111561221757fe5b021790555061010082015160088201805462ff000019166201000083600281111561223e57fe5b02179055505050600160a060020a033316600090815260056020526040902080549192509060018101612271838261343f565b5060009182526020909120600019830191018190556001547fa92f72169148c9496c849a1d7d24784a1105c76ff1b60c2cf0fab3c01e79c7309134918a9042018a8a8960405187815260208101879052604081018661010080838360005b838110156122e75780820151838201526020016122cf565b505050509050018563ffffffff1663ffffffff16815260200184600781111561230c57fe5b60ff16815260200183600281111561232057fe5b60ff16815260200182608080838360005b83811015612349578082015183820152602001612331565b5050505090500197505050505050505060405180910390a15050505050505050565b60015481565b60035481565b61237f61324d565b61238761324d565b61238f61324d565b61239761324d565b61239f61324d565b6123a761324d565b6123af61324d565b60006123b961324d565b60006123c361324d565b600680546000919010156123db5760065494506123e0565b600694505b846040518059106123ee5750595b908082528060200260200182016040525093508460405180591061240f5750595b90808252806020026020018201604052801561244557816020015b6124326132d5565b81526020019060019003908161242a5790505b50600680549193509010156128325750600654600092505b600081111561282d5760068054600019830190811061247857fe5b906000526020600020906009020161012060405190810160409081528254600160a060020a0316825260018301546020830152909190808301906002830190606090519081016040529081600082018054600181600116156101000203166002900480601f01602080910402602001604051908101604052809291908181526020018280546001816001161561010002031660029004801561255b5780601f106125305761010080835404028352916020019161255b565b820191906000526020600020905b81548152906001019060200180831161253e57829003601f168201915b50505050508152602001600182018054600181600116156101000203166002900480601f0160208091040260200160405190810160405280929190818152602001828054600181600116156101000203166002900480156125fd5780601f106125d2576101008083540402835291602001916125fd565b820191906000526020600020905b8154815290600101906020018083116125e057829003601f168201915b50505091835250506020016002820160046080604051908101604052919060808301826000855b825461010083900a900460ff168152602060019283018181049485019490930390920291018084116126245790505050505050815250508152602001600582018054600181600116156101000203166002900480601f0160208091040260200160405190810160405280929190818152602001828054600181600116156101000203166002900480156126f85780601f106126cd576101008083540402835291602001916126f8565b820191906000526020600020905b8154815290600101906020018083116126db57829003601f168201915b5050509183525050600682015463ffffffff1660208201526040908101906007830190600890610100905190810160405291906101008301826000855b825461010083900a900460ff16151581526020600192830181810494850194909303909202910180841161273557505050928452505050600882015460209091019060ff16600281111561278557fe5b600281111561279057fe5b81526020016008820160019054906101000a900460ff1660078111156127b257fe5b60078111156127bd57fe5b81526020016008820160029054906101000a900460ff1660028111156127df57fe5b60028111156127ea57fe5b9052508284815181106127f957fe5b60209081029091010152600019810184848151811061281457fe5b602090810290910101526001909201916000190161245d565b612c10565b50600654600092505b60065460051901811115612c105760068054600019830190811061285b57fe5b906000526020600020906009020161012060405190810160409081528254600160a060020a0316825260018301546020830152909190808301906002830190606090519081016040529081600082018054600181600116156101000203166002900480601f01602080910402602001604051908101604052809291908181526020018280546001816001161561010002031660029004801561293e5780601f106129135761010080835404028352916020019161293e565b820191906000526020600020905b81548152906001019060200180831161292157829003601f168201915b50505050508152602001600182018054600181600116156101000203166002900480601f0160208091040260200160405190810160405280929190818152602001828054600181600116156101000203166002900480156129e05780601f106129b5576101008083540402835291602001916129e0565b820191906000526020600020905b8154815290600101906020018083116129c357829003601f168201915b50505091835250506020016002820160046080604051908101604052919060808301826000855b825461010083900a900460ff16815260206001928301818104948501949093039092029101808411612a075790505050505050815250508152602001600582018054600181600116156101000203166002900480601f016020809104026020016040519081016040528092919081815260200182805460018160011615610100020316600290048015612adb5780601f10612ab057610100808354040283529160200191612adb565b820191906000526020600020905b815481529060010190602001808311612abe57829003601f168201915b5050509183525050600682015463ffffffff1660208201526040908101906007830190600890610100905190810160405291906101008301826000855b825461010083900a900460ff161515815260206001928301818104948501949093039092029101808411612b1857505050928452505050600882015460209091019060ff166002811115612b6857fe5b6002811115612b7357fe5b81526020016008820160019054906101000a900460ff166007811115612b9557fe5b6007811115612ba057fe5b81526020016008820160029054906101000a900460ff166002811115612bc257fe5b6002811115612bcd57fe5b905250828481518110612bdc57fe5b602090810290910101526000198101848481518110612bf757fe5b602090810290910101526001909201916000190161283b565b612c1a8483612cd1565b9b509b509b509b509b509b509b50505050505090919293949596565b60005433600160a060020a03908116911614612c5157600080fd5b600160a060020a0381161515612c6657600080fd5b600054600160a060020a0380831691167f8be0079c531659141344cd1fd0a4f28419497f9722a3daafe3b4186f6b6457e060405160405180910390a36000805473ffffffffffffffffffffffffffffffffffffffff1916600160a060020a0392909216919091179055565b612cd961324d565b612ce161324d565b612ce961324d565b612cf161324d565b612cf961324d565b612d0161324d565b612d0961324d565b612d1161324d565b612d1961324d565b612d2161324d565b612d2961324d565b612d3161324d565b612d3961324d565b60008e51604051805910612d4a5750595b908082528060200260200182016040525096508e51604051805910612d6c5750595b908082528060200260200182016040525095508e51604051805910612d8e5750595b908082528060200260200182016040525094508e51604051805910612db05750595b908082528060200260200182016040525093508e51604051805910612dd25750595b908082528060200260200182016040525092508e51604051805910612df45750595b90808252806020026020018201604052509150600090505b8e51811015612f88578e8181518110612e2157fe5b9060200190602002015151878281518110612e3857fe5b600160a060020a039092166020928302909101909101528e8181518110612e5b57fe5b9060200190602002015160200151868281518110612e7557fe5b602090810290910101528e8181518110612e8b57fe5b9060200190602002015160800151858281518110612ea557fe5b63ffffffff9092166020928302909101909101528e8181518110612ec557fe5b9060200190602002015160c001516002811115612ede57fe5b848281518110612eea57fe5b60ff9092166020928302909101909101528e8181518110612f0757fe5b9060200190602002015160e001516007811115612f2057fe5b838281518110612f2c57fe5b60ff9092166020928302909101909101528e8181518110612f4957fe5b9060200190602002015161010001516002811115612f6357fe5b828281518110612f6f57fe5b60ff909216602092830290910190910152600101612e0c565b509d9e949d939c50919a5098509650945092505050565b600082820183811015612fae57fe5b9392505050565b612fbd61325f565b612fc561325f565b6001600080808060166002428a5160ff16016000604051602001526040519081526020908101906040518083038160008661646e5a03f1151561300757600080fd5b5050604051805160ff16905081151561301c57fe5b069350603860024260208b015160ff16016000604051602001526040519081526020908101906040518083038160008661646e5a03f1151561305d57600080fd5b5050604051805160ff16905081151561307257fe5b06601601925060386002428a82602002015160ff16016000604051602001526040519081526020908101906040518083038160008661646e5a03f115156130b857600080fd5b5050604051805160ff1690508115156130cd57fe5b0660160191505b8160ff168360ff16141561314a5760386002428760408c01510160ff16016000604051602001526040519081526020908101906040518083038160008661646e5a03f1151561312257600080fd5b5050604051805160ff16905081151561313757fe5b06601601915084806001019550506130d4565b603860024260608b015160ff16016000604051602001526040519081526020908101906040518083038160008661646e5a03f1151561318857600080fd5b5050604051805160ff16905081151561319d57fe5b0660160190505b8060ff168360ff1614806131bd57508060ff168260ff16145b1561322a5760386002428760608c01510160ff16016000604051602001526040519081526020908101906040518083038160008661646e5a03f1151561320257600080fd5b5050604051805160ff16905081151561321757fe5b06601601905084806001019550506131a4565b60ff93841686529183166020860152821660408501521660608301525092915050565b60206040519081016040526000815290565b60806040519081016040526004815b60008152600019909101906020018161326e5790505090565b60c06040519081016040528061329b61324d565b81526020016132a861324d565b81526020016132b561325f565b905290565b6101006040519081016040526000815260076020820161326e565b6102a060405190810160409081526000808352602083015281016132f7613287565b815260200161330461324d565b8152600060208201526040016133186132ba565b8152602001600081526020016000815260200160006132b5565b828054600181600116156101000203166002900490600052602060002090601f016020900481019282601f1061337357805160ff19168380011785556133a0565b828001600101855582156133a0579182015b828111156133a0578251825591602001919060010190613385565b506133ac9291506134e7565b5090565b6001830191839082156134335791602002820160005b8382111561340457835183826101000a81548160ff021916908360ff16021790555092602001926001016020816000010492830192600103026133c6565b80156134315782816101000a81549060ff0219169055600101602081600001049283019260010302613404565b505b506133ac929150613501565b815481835581811511613463576000838152602090206134639181019083016134e7565b505050565b81548183558181151161346357600902816009028360005260206000209182019101613463919061351f565b6001830191839082156134335791602002820160005b8382111561340457835183826101000a81548160ff02191690831515021790555092602001926001016020816000010492830192600103026134aa565b610f0791905b808211156133ac57600081556001016134ed565b610f0791905b808211156133ac57805460ff19168155600101613507565b610f0791905b808211156133ac57805473ffffffffffffffffffffffffffffffffffffffff19168155600060018201819055600282018161356082826135c1565b61356e6001830160006135c1565b61357c600283016000613605565b5061358d90506005830160006135c1565b60068201805463ffffffff191690556135aa600783016000613605565b5060088101805462ffffff19169055600901613525565b50805460018160011615610100020316600290046000825580601f106135e75750610f63565b601f016020900490600052602060002090810190610f6391906134e7565b50600090555600a165627a7a72305820095f701fe62ce44b92a5918147489ea1fe042d3727051ec6ef686eecc365d1ee0029",
  "source": "pragma solidity ^0.4.19;\n\nimport 'zeppelin-solidity/contracts/ownership/Ownable.sol';\nimport 'zeppelin-solidity/contracts/math/SafeMath.sol';\nimport 'zeppelin-solidity/contracts/lifecycle/Pausable.sol';\n\ncontract TaroEth is Ownable, Pausable{\n  using SafeMath for uint256;\n\n  event NewPetition(uint incentive, uint petitionIndex, bool[8] topics, uint32 turnaround, Topic showcaseTopic, VideoStorageOptions storageOption, uint8[4] spread);\n  event NewReading(string url, string commentary);\n\n  enum PetitionStatus { Pending, Fulfilled, Cancelled}\n  enum VideoStorageOptions { Youtube, IPFS, Swarm}\n  enum Topic {Love, Finance, Success, Health, Work, Fear, Crypto, Everything}\n\n\n  uint public maximumTurnaround = 7 days;\n  uint public unlockedBalance = 0;\n  uint public minimumIncentive = 0;\n\n\n  //Follow this order (with omissions when necessary) for all input / output parameters for Petition.\n  //Prefix external input output parameters\n  struct Petition {\n    address petitioner;\n    uint256 incentive;\n    Reading reading; //who knows\n    string comments; //who knows\n    uint32 turnaround; //uint32\n    bool[8] topics; //8bits\n    PetitionStatus status; //uint8\n    Topic showcaseTopic; //uint8\n    VideoStorageOptions storageOption; //uint8\n  }\n\n  struct Reading {\n    string url;\n    string commentary;\n    uint8[4] spread;\n  }\n\n\n  address[] public petitionersAddresses;\n  mapping(address => uint[]) public addressToPetitionIndexes;\n  Petition[] petitions;\n\n  modifier existingPetition(uint _index) {\n    require(petitions[_index].turnaround != 0);\n    _;\n  }\n\n  function TaroEth() public payable {\n    unlockedBalance = msg.value;\n  }\n\n  function withdraw() external onlyOwner {\n    uint withdrawSum = unlockedBalance;\n    unlockedBalance = 0;\n    owner.transfer(withdrawSum);\n  }\n\n  function petitionsLength() external view returns(uint length){\n    return petitions.length;\n  }\n\n  function makePetition(string _comments, bool[8] _topics, Topic _showcaseTopic, VideoStorageOptions _storageOption, uint8[4] nonces)\n    payable\n    public\n    whenNotPaused\n    {\n    require(msg.value >= minimumIncentive);\n    if (addressToPetitionIndexes[msg.sender].length == 0){\n      petitionersAddresses.push(msg.sender);\n    }\n    uint8[4] memory spread = generateSpread(nonces);\n\n    Petition memory petition = Petition({\n      petitioner: msg.sender,\n      incentive: msg.value,\n      reading: Reading(\"\",\"\", spread),\n      comments: _comments,\n      turnaround: uint32(now + maximumTurnaround),\n      topics: _topics,\n      status: PetitionStatus.Pending,\n      showcaseTopic: (_showcaseTopic),\n      storageOption: VideoStorageOptions(_storageOption)\n      });\n    uint newPetitionIndex = petitions.push(petition);\n    addressToPetitionIndexes[msg.sender].push((newPetitionIndex - 1));\n    NewPetition(msg.value, (newPetitionIndex - 1), _topics, uint32(now + maximumTurnaround), _showcaseTopic, _storageOption, spread);\n  }\n\n  function generateSpread(uint8[4] nonces) internal view returns(uint8[4]){\n      uint8[4] memory spread;\n      uint8 counter = 1;\n      uint8 majorArcana = uint8(uint8(sha256(nonces[0] + uint256(block.timestamp))) % 22);\n      uint8 minor1 = uint8(uint8(sha256(nonces[1] + uint256(block.timestamp))) % 56) + 22;\n      uint8 minor2 = uint8(uint8(sha256(nonces[2] + uint256(block.timestamp))) % 56) + 22;\n      while(minor1 == minor2){\n          minor2 = uint8(uint8(sha256(nonces[2] + counter + uint256(block.timestamp))) % 56) + 22;\n          counter++;\n      }\n      uint8 minor3 = uint8(uint8(sha256(nonces[3] + uint256(block.timestamp))) % 56) + 22;\n      while(minor1 == minor3 || minor2 == minor3){\n          minor3 = uint8(uint8(sha256(nonces[3] + counter + uint256(block.timestamp))) % 56) + 22;\n          counter++;\n      }\n\n      spread[0] = majorArcana;\n      spread[1] = minor1;\n      spread[2] = minor2;\n      spread[3] = minor3;\n      return spread;\n    }\n\n  function cancelPetition(uint256 _index) public existingPetition(_index) {\n    require(petitions[_index].petitioner == msg.sender);\n    require(petitions[_index].status == PetitionStatus.Pending);\n    require(petitions[_index].turnaround < now);\n    petitions[_index].status = PetitionStatus.Cancelled;\n    msg.sender.transfer(petitions[_index].incentive);\n  }\n\n  function updateReading(string _url, string _commentary, uint _index) public onlyOwner existingPetition(_index) {\n    if(petitions[_index].status == PetitionStatus.Pending){\n      unlockedBalance = unlockedBalance.add(petitions[_index].incentive);\n    }\n    petitions[_index].status = PetitionStatus.Fulfilled;\n    petitions[_index].reading =  Reading(_url, _commentary, petitions[_index].reading.spread);\n    NewReading(_url, _commentary);\n  }\n\n  function modifyConstraints(uint _turnaround, uint _minimumIncentive) external onlyOwner {\n    minimumIncentive = _minimumIncentive;\n    maximumTurnaround = (_turnaround);\n  }\n\n  function getLastPetitions()\n  external\n  view returns(uint[] indexes,\n               address[] petitioner,\n               uint[] incentive,\n               uint32[] turnaround,\n               uint8[] status,\n               uint8[] showcaseTopic,\n               uint8[] storageOption\n  ){\n    uint resultLength;\n    if(petitions.length < 6){\n      resultLength = petitions.length;\n    }else{\n      resultLength = 6;\n    }\n    uint[] memory petitionIndexes = new uint[](resultLength);\n    uint arrIndex;\n    Petition[] memory result = new Petition[](resultLength);\n    //6 being the magic number of returned petitions...\n    if(petitions.length < 6) {\n      arrIndex = 0;\n      for(uint i = petitions.length; i > 0; i--){\n        result[arrIndex] = petitions[i - 1];\n        petitionIndexes[arrIndex] = (i - 1);\n        arrIndex++;\n      }\n    }else{\n      arrIndex = 0;\n      for(i = petitions.length; i > (petitions.length - 6); i--){\n        result[arrIndex] = (petitions[(i - 1)]);\n        petitionIndexes[arrIndex] = (i - 1);\n        arrIndex++;\n      }\n    }\n    return serializePetitionArray(petitionIndexes, result);\n  }\n\n  function getPetition(uint _index)\n  public\n  view\n  returns(uint256 incentive,\n          string comments,\n          uint32 turnaround,\n          bool[8] topics,\n          uint8 status,\n          uint8 showcaseTopic,\n          uint8 storageOption\n          ){\n\n    if(petitions.length <= _index){\n      return(0, '', 0, [false,false,false,false,false,false,false,false], 0, 0, 0);\n    }\n    Petition memory petition = petitions[_index];\n    return(petition.incentive,petition.comments,petition.turnaround, petition.topics, uint8(petition.status),uint8(petition.showcaseTopic),uint8(petition.storageOption));\n  }\n\n  function getReading(uint _index)\n  external\n  view\n  returns(string url, string commentary, uint8[4] spread){\n    if(petitions.length <= _index){\n      return('', '', [0,0,0,0]);\n    }\n    Reading memory reading = petitions[_index].reading;\n    return (reading.url, reading.commentary, reading.spread);\n  }\n\n  function getAllPetitions()\n  external\n  view\n  returns(uint[] indexes,\n          address[] petitioner,\n          uint[] incentive,\n          uint32[] turnaround,\n          uint8[] status,\n          uint8[] showcaseTopic,\n          uint8[] storageOption\n  ){\n    Petition[] memory result = new Petition[](petitions.length);\n    uint[] memory petitionIndexes = new uint[](petitions.length);\n    for(uint i = 0; i < petitions.length; i++){\n      petitionIndexes[i] = i;\n      result[i] = (petitions[petitionIndexes[i]]);\n    }\n    return serializePetitionArray(petitionIndexes, result);\n  }\n\n\n  function getPetitionsByPetitioner(address _petitioner)\n  external\n  view\n  returns(uint[] indexes,\n          address[] petitioner,\n          uint[] incentive,\n          uint32[] turnaround,\n          uint8[] status,\n          uint8[] showcaseTopic,\n          uint8[] storageOption\n  ){\n    uint resultLength = addressToPetitionIndexes[_petitioner].length;\n    Petition[] memory result = new Petition[](resultLength);\n    uint[] memory petitionIndexes = new uint[](resultLength);\n    for(uint i = 0; i < resultLength; i++){\n      petitionIndexes[i] = addressToPetitionIndexes[_petitioner][i];\n      result[i] = (petitions[petitionIndexes[i]]);\n    }\n    return serializePetitionArray(petitionIndexes, result);\n  }\n\n  function serializePetitionArray(uint[] petitionIndexes, Petition[] _petitions)\n  internal\n  pure\n  returns(uint[], address[], uint[], uint32[], uint8[], uint8[], uint8[]) {\n    address [] memory petitioners   = new address[](_petitions.length);\n    uint    [] memory incentives    = new uint[](_petitions.length);\n    uint32  [] memory turnarounds   = new uint32[](_petitions.length);\n    uint8   [] memory status        = new uint8[](_petitions.length);\n    uint8   [] memory showcaseTopic = new uint8[](_petitions.length);\n    uint8   [] memory storageOption = new uint8[](_petitions.length);\n    for(uint i = 0; i < _petitions.length; i++) {\n      petitioners[i]    = _petitions[i].petitioner;\n      incentives[i]     = _petitions[i].incentive;\n      turnarounds[i]    = _petitions[i].turnaround;\n      status[i]         = uint8(_petitions[i].status);\n      showcaseTopic[i]  = uint8(_petitions[i].showcaseTopic);\n      storageOption[i]  = uint8(_petitions[i].storageOption);\n    }\n    return (petitionIndexes, petitioners, incentives, turnarounds, status, showcaseTopic, storageOption);\n  }\n}\n",
  "sourcePath": "/Users/chunkzer/Workspace/taroETH/contracts/TaroEth.sol",
  "compiler": {
    "name": "solc",
    "version": "0.4.19+commit.c4cbbb05.Emscripten.clang"
  },
  "schemaVersion": "2.0.0",
  "updatedAt": "2018-04-28T23:10:39.728Z"
}